{
  "contractName": "SeguroFactory",
  "abi": [
    {
      "inputs": [],
      "stateMutability": "nonpayable",
      "type": "constructor"
    },
    {
      "inputs": [
        {
          "internalType": "uint256",
          "name": "",
          "type": "uint256"
        }
      ],
      "name": "seguros",
      "outputs": [
        {
          "internalType": "address",
          "name": "",
          "type": "address"
        }
      ],
      "stateMutability": "view",
      "type": "function",
      "constant": true
    },
    {
      "inputs": [],
      "name": "viewSeguros",
      "outputs": [
        {
          "internalType": "address[]",
          "name": "",
          "type": "address[]"
        }
      ],
      "stateMutability": "view",
      "type": "function",
      "constant": true
    },
    {
      "inputs": [
        {
          "internalType": "uint256",
          "name": "_adminTax",
          "type": "uint256"
        },
        {
          "internalType": "address[]",
          "name": "_members",
          "type": "address[]"
        },
        {
          "internalType": "string[]",
          "name": "_imeis",
          "type": "string[]"
        },
        {
          "internalType": "uint256",
          "name": "_lmiTax",
          "type": "uint256"
        }
      ],
      "name": "createSeguro",
      "outputs": [],
      "stateMutability": "nonpayable",
      "type": "function"
    }
  ],
  "bytecode": "0x608060405234801561001057600080fd5b50336000806101000a81548173ffffffffffffffffffffffffffffffffffffffff021916908373ffffffffffffffffffffffffffffffffffffffff160217905550612dd1806100606000396000f3fe60806040523480156200001157600080fd5b5060043610620000465760003560e01c80630cb9a7b0146200004b578063518d9d02146200006b5780639d980340146200008d575b600080fd5b620000696004803603810190620000639190620006e9565b620000c3565b005b6200007562000223565b60405162000084919062000867565b60405180910390f35b620000ab6004803603810190620000a591906200088b565b620002b3565b604051620000ba9190620008ce565b60405180910390f35b3373ffffffffffffffffffffffffffffffffffffffff1660008054906101000a900473ffffffffffffffffffffffffffffffffffffffff1673ffffffffffffffffffffffffffffffffffffffff161462000154576040517f08c379a00000000000000000000000000000000000000000000000000000000081526004016200014b906200094c565b60405180910390fd5b60008484848460008054906101000a900473ffffffffffffffffffffffffffffffffffffffff166040516200018990620002f3565b6200019995949392919062000ad8565b604051809103906000f080158015620001b6573d6000803e3d6000fd5b5090506001819080600181540180825580915050600190039060005260206000200160009091909190916101000a81548173ffffffffffffffffffffffffffffffffffffffff021916908373ffffffffffffffffffffffffffffffffffffffff1602179055505050505050565b60606001805480602002602001604051908101604052809291908181526020018280548015620002a957602002820191906000526020600020905b8160009054906101000a900473ffffffffffffffffffffffffffffffffffffffff1673ffffffffffffffffffffffffffffffffffffffff16815260200190600101908083116200025e575b5050505050905090565b60018181548110620002c457600080fd5b906000526020600020016000915054906101000a900473ffffffffffffffffffffffffffffffffffffffff1681565b6122588062000b4483390190565b6000604051905090565b600080fd5b600080fd5b6000819050919050565b6200032a8162000315565b81146200033657600080fd5b50565b6000813590506200034a816200031f565b92915050565b600080fd5b6000601f19601f8301169050919050565b7f4e487b7100000000000000000000000000000000000000000000000000000000600052604160045260246000fd5b620003a08262000355565b810181811067ffffffffffffffff82111715620003c257620003c162000366565b5b80604052505050565b6000620003d762000301565b9050620003e5828262000395565b919050565b600067ffffffffffffffff82111562000408576200040762000366565b5b602082029050602081019050919050565b600080fd5b600073ffffffffffffffffffffffffffffffffffffffff82169050919050565b60006200044b826200041e565b9050919050565b6200045d816200043e565b81146200046957600080fd5b50565b6000813590506200047d8162000452565b92915050565b60006200049a6200049484620003ea565b620003cb565b90508083825260208201905060208402830185811115620004c057620004bf62000419565b5b835b81811015620004ed5780620004d888826200046c565b845260208401935050602081019050620004c2565b5050509392505050565b600082601f8301126200050f576200050e62000350565b5b81356200052184826020860162000483565b91505092915050565b600067ffffffffffffffff82111562000548576200054762000366565b5b602082029050602081019050919050565b600080fd5b600067ffffffffffffffff8211156200057c576200057b62000366565b5b620005878262000355565b9050602081019050919050565b82818337600083830152505050565b6000620005ba620005b4846200055e565b620003cb565b905082815260208101848484011115620005d957620005d862000559565b5b620005e684828562000594565b509392505050565b600082601f83011262000606576200060562000350565b5b813562000618848260208601620005a3565b91505092915050565b60006200063862000632846200052a565b620003cb565b905080838252602082019050602084028301858111156200065e576200065d62000419565b5b835b81811015620006ac57803567ffffffffffffffff81111562000687576200068662000350565b5b808601620006968982620005ee565b8552602085019450505060208101905062000660565b5050509392505050565b600082601f830112620006ce57620006cd62000350565b5b8135620006e084826020860162000621565b91505092915050565b600080600080608085870312156200070657620007056200030b565b5b6000620007168782880162000339565b945050602085013567ffffffffffffffff8111156200073a576200073962000310565b5b6200074887828801620004f7565b935050604085013567ffffffffffffffff8111156200076c576200076b62000310565b5b6200077a87828801620006b6565b92505060606200078d8782880162000339565b91505092959194509250565b600081519050919050565b600082825260208201905092915050565b6000819050602082019050919050565b620007d0816200043e565b82525050565b6000620007e48383620007c5565b60208301905092915050565b6000602082019050919050565b60006200080a8262000799565b620008168185620007a4565b93506200082383620007b5565b8060005b838110156200085a5781516200083e8882620007d6565b97506200084b83620007f0565b92505060018101905062000827565b5085935050505092915050565b60006020820190508181036000830152620008838184620007fd565b905092915050565b600060208284031215620008a457620008a36200030b565b5b6000620008b48482850162000339565b91505092915050565b620008c8816200043e565b82525050565b6000602082019050620008e56000830184620008bd565b92915050565b600082825260208201905092915050565b7f4e6f74206f776e65720000000000000000000000000000000000000000000000600082015250565b600062000934600983620008eb565b91506200094182620008fc565b602082019050919050565b60006020820190508181036000830152620009678162000925565b9050919050565b620009798162000315565b82525050565b600081519050919050565b600082825260208201905092915050565b6000819050602082019050919050565b600081519050919050565b600082825260208201905092915050565b60005b83811015620009e7578082015181840152602081019050620009ca565b60008484015250505050565b600062000a0082620009ab565b62000a0c8185620009b6565b935062000a1e818560208601620009c7565b62000a298162000355565b840191505092915050565b600062000a428383620009f3565b905092915050565b6000602082019050919050565b600062000a64826200097f565b62000a7081856200098a565b93508360208202850162000a84856200099b565b8060005b8581101562000ac6578484038952815162000aa4858262000a34565b945062000ab18362000a4a565b925060208a0199505060018101905062000a88565b50829750879550505050505092915050565b600060a08201905062000aef60008301886200096e565b818103602083015262000b038187620007fd565b9050818103604083015262000b19818662000a57565b905062000b2a60608301856200096e565b62000b396080830184620008bd565b969550505050505056fe60806040523480156200001157600080fd5b506040516200225838038062002258833981810160405281019062000037919062000619565b806000806101000a81548173ffffffffffffffffffffffffffffffffffffffff021916908373ffffffffffffffffffffffffffffffffffffffff1602179055508460018190555060005b84518110156200020157838181518110620000a157620000a0620006df565b5b602002602001015160046000878481518110620000c357620000c2620006df565b5b602002602001015173ffffffffffffffffffffffffffffffffffffffff1673ffffffffffffffffffffffffffffffffffffffff16815260200190815260200160002090816200011391906200094f565b5060006005600087848151811062000130576200012f620006df565b5b602002602001015173ffffffffffffffffffffffffffffffffffffffff1673ffffffffffffffffffffffffffffffffffffffff16815260200190815260200160002081905550600060066000878481518110620001925762000191620006df565b5b602002602001015173ffffffffffffffffffffffffffffffffffffffff1673ffffffffffffffffffffffffffffffffffffffff16815260200190815260200160002060006101000a81548160ff0219169083151502179055508080620001f89062000a65565b91505062000081565b5081600381905550505050505062000ab2565b6000604051905090565b600080fd5b600080fd5b6000819050919050565b6200023d8162000228565b81146200024957600080fd5b50565b6000815190506200025d8162000232565b92915050565b600080fd5b6000601f19601f8301169050919050565b7f4e487b7100000000000000000000000000000000000000000000000000000000600052604160045260246000fd5b620002b38262000268565b810181811067ffffffffffffffff82111715620002d557620002d462000279565b5b80604052505050565b6000620002ea62000214565b9050620002f88282620002a8565b919050565b600067ffffffffffffffff8211156200031b576200031a62000279565b5b602082029050602081019050919050565b600080fd5b600073ffffffffffffffffffffffffffffffffffffffff82169050919050565b60006200035e8262000331565b9050919050565b620003708162000351565b81146200037c57600080fd5b50565b600081519050620003908162000365565b92915050565b6000620003ad620003a784620002fd565b620002de565b90508083825260208201905060208402830185811115620003d357620003d26200032c565b5b835b81811015620004005780620003eb88826200037f565b845260208401935050602081019050620003d5565b5050509392505050565b600082601f83011262000422576200042162000263565b5b81516200043484826020860162000396565b91505092915050565b600067ffffffffffffffff8211156200045b576200045a62000279565b5b602082029050602081019050919050565b600080fd5b600067ffffffffffffffff8211156200048f576200048e62000279565b5b6200049a8262000268565b9050602081019050919050565b60005b83811015620004c7578082015181840152602081019050620004aa565b60008484015250505050565b6000620004ea620004e48462000471565b620002de565b9050828152602081018484840111156200050957620005086200046c565b5b62000516848285620004a7565b509392505050565b600082601f83011262000536576200053562000263565b5b815162000548848260208601620004d3565b91505092915050565b60006200056862000562846200043d565b620002de565b905080838252602082019050602084028301858111156200058e576200058d6200032c565b5b835b81811015620005dc57805167ffffffffffffffff811115620005b757620005b662000263565b5b808601620005c689826200051e565b8552602085019450505060208101905062000590565b5050509392505050565b600082601f830112620005fe57620005fd62000263565b5b81516200061084826020860162000551565b91505092915050565b600080600080600060a086880312156200063857620006376200021e565b5b600062000648888289016200024c565b955050602086015167ffffffffffffffff8111156200066c576200066b62000223565b5b6200067a888289016200040a565b945050604086015167ffffffffffffffff8111156200069e576200069d62000223565b5b620006ac88828901620005e6565b9350506060620006bf888289016200024c565b9250506080620006d2888289016200037f565b9150509295509295909350565b7f4e487b7100000000000000000000000000000000000000000000000000000000600052603260045260246000fd5b600081519050919050565b7f4e487b7100000000000000000000000000000000000000000000000000000000600052602260045260246000fd5b600060028204905060018216806200076157607f821691505b60208210810362000777576200077662000719565b5b50919050565b60008190508160005260206000209050919050565b60006020601f8301049050919050565b600082821b905092915050565b600060088302620007e17fffffffffffffffffffffffffffffffffffffffffffffffffffffffffffffffff82620007a2565b620007ed8683620007a2565b95508019841693508086168417925050509392505050565b6000819050919050565b6000620008306200082a620008248462000228565b62000805565b62000228565b9050919050565b6000819050919050565b6200084c836200080f565b620008646200085b8262000837565b848454620007af565b825550505050565b600090565b6200087b6200086c565b6200088881848462000841565b505050565b5b81811015620008b057620008a460008262000871565b6001810190506200088e565b5050565b601f821115620008ff57620008c9816200077d565b620008d48462000792565b81016020851015620008e4578190505b620008fc620008f38562000792565b8301826200088d565b50505b505050565b600082821c905092915050565b6000620009246000198460080262000904565b1980831691505092915050565b60006200093f838362000911565b9150826002028217905092915050565b6200095a826200070e565b67ffffffffffffffff81111562000976576200097562000279565b5b62000982825462000748565b6200098f828285620008b4565b600060209050601f831160018114620009c75760008415620009b2578287015190505b620009be858262000931565b86555062000a2e565b601f198416620009d7866200077d565b60005b8281101562000a0157848901518255600182019150602085019450602081019050620009da565b8683101562000a21578489015162000a1d601f89168262000911565b8355505b6001600288020188555050505b505050505050565b7f4e487b7100000000000000000000000000000000000000000000000000000000600052601160045260246000fd5b600062000a728262000228565b91507fffffffffffffffffffffffffffffffffffffffffffffffffffffffffffffffff820362000aa75762000aa662000a36565b5b600182019050919050565b6117968062000ac26000396000f3fe6080604052600436106100915760003560e01c80636fcab409116100595780636fcab4091461016e578063a08aafd014610178578063a4015a4b146101a3578063c704665d146101e0578063d7d8bcff146101ea57610091565b806305915cf814610096578063145f919c146100b25780633a96fdd7146100ef57806363ffe7e31461012c5780636f9fb98a14610143575b600080fd5b6100b060048036038101906100ab919061114e565b610215565b005b3480156100be57600080fd5b506100d960048036038101906100d491906111ed565b610730565b6040516100e69190611280565b60405180910390f35b3480156100fb57600080fd5b50610116600480360381019061011191906111ed565b61078a565b6040516101239190611280565b60405180910390f35b34801561013857600080fd5b506101416107e3565b005b34801561014f57600080fd5b506101586108a6565b60405161016591906112aa565b60405180910390f35b6101766108ae565b005b34801561018457600080fd5b5061018d610a7d565b60405161019a91906112aa565b60405180910390f35b3480156101af57600080fd5b506101ca60048036038101906101c591906112c5565b610a83565b6040516101d79190611371565b60405180910390f35b6101e8610b54565b005b3480156101f657600080fd5b506101ff610d79565b60405161020c91906112aa565b60405180910390f35b60008054906101000a900473ffffffffffffffffffffffffffffffffffffffff1673ffffffffffffffffffffffffffffffffffffffff163373ffffffffffffffffffffffffffffffffffffffff161461026d57600080fd5b83600660008273ffffffffffffffffffffffffffffffffffffffff1673ffffffffffffffffffffffffffffffffffffffff16815260200190815260200160002060009054906101000a900460ff166102c457600080fd5b610395600460008773ffffffffffffffffffffffffffffffffffffffff1673ffffffffffffffffffffffffffffffffffffffff1681526020019081526020016000208054610311906113c2565b80601f016020809104026020016040519081016040528092919081815260200182805461033d906113c2565b801561038a5780601f1061035f5761010080835404028352916020019161038a565b820191906000526020600020905b81548152906001019060200180831161036d57829003601f168201915b50505050508561078a565b6103d4576040517f08c379a00000000000000000000000000000000000000000000000000000000081526004016103cb9061143f565b60405180910390fd5b6000600560008773ffffffffffffffffffffffffffffffffffffffff1673ffffffffffffffffffffffffffffffffffffffff1681526020019081526020016000205490508361042e60035483610e1890919063ffffffff16565b106104d5578573ffffffffffffffffffffffffffffffffffffffff166108fc859081150290604051600060405180830381858888f19350505050158015610479573d6000803e3d6000fd5b5061048d8482610e2e90919063ffffffff16565b600560008873ffffffffffffffffffffffffffffffffffffffff1673ffffffffffffffffffffffffffffffffffffffff16815260200190815260200160002081905550610728565b60006104ea8286610e2e90919063ffffffff16565b90506000600560008973ffffffffffffffffffffffffffffffffffffffff1673ffffffffffffffffffffffffffffffffffffffff1681526020019081526020016000208190555060006105468347610e2e90919063ffffffff16565b905060005b85518110156106dd5760008211610597576040517f08c379a000000000000000000000000000000000000000000000000000000000815260040161058e906114d1565b60405180910390fd5b6000600560008884815181106105b0576105af6114f1565b5b602002602001015173ffffffffffffffffffffffffffffffffffffffff1673ffffffffffffffffffffffffffffffffffffffff168152602001908152602001600020549050600061062484610616670de0b6b3a764000085610e1890919063ffffffff16565b610e4490919063ffffffff16565b90506000610655670de0b6b3a76400006106478489610e1890919063ffffffff16565b610e4490919063ffffffff16565b905061066a8184610e2e90919063ffffffff16565b600560008b8781518110610681576106806114f1565b5b602002602001015173ffffffffffffffffffffffffffffffffffffffff1673ffffffffffffffffffffffffffffffffffffffff1681526020019081526020016000208190555050505080806106d59061154f565b91505061054b565b508773ffffffffffffffffffffffffffffffffffffffff166108fc879081150290604051600060405180830381858888f19350505050158015610724573d6000803e3d6000fd5b5050505b505050505050565b60008160405160200161074391906115d3565b604051602081830303815290604052805190602001208360405160200161076a91906115d3565b604051602081830303815290604052805190602001201415905092915050565b60008160405160200161079d91906115d3565b60405160208183030381529060405280519060200120836040516020016107c491906115d3565b6040516020818303038152906040528051906020012014905092915050565b60008054906101000a900473ffffffffffffffffffffffffffffffffffffffff1673ffffffffffffffffffffffffffffffffffffffff163373ffffffffffffffffffffffffffffffffffffffff161461083b57600080fd5b60008054906101000a900473ffffffffffffffffffffffffffffffffffffffff1673ffffffffffffffffffffffffffffffffffffffff166108fc6002549081150290604051600060405180830381858888f193505050501580156108a3573d6000803e3d6000fd5b50565b600047905090565b33600660008273ffffffffffffffffffffffffffffffffffffffff1673ffffffffffffffffffffffffffffffffffffffff16815260200190815260200160002060009054906101000a900460ff1661090557600080fd5b6109e5600460003373ffffffffffffffffffffffffffffffffffffffff1673ffffffffffffffffffffffffffffffffffffffff1681526020019081526020016000208054610952906113c2565b80601f016020809104026020016040519081016040528092919081815260200182805461097e906113c2565b80156109cb5780601f106109a0576101008083540402835291602001916109cb565b820191906000526020600020905b8154815290600101906020018083116109ae57829003601f168201915b505050505060405180602001604052806000815250610730565b610a24576040517f08c379a0000000000000000000000000000000000000000000000000000000008152600401610a1b90611636565b60405180910390fd5b34600560003373ffffffffffffffffffffffffffffffffffffffff1673ffffffffffffffffffffffffffffffffffffffff1681526020019081526020016000206000828254610a739190611656565b9250508190555050565b60025481565b6060600460008373ffffffffffffffffffffffffffffffffffffffff1673ffffffffffffffffffffffffffffffffffffffff1681526020019081526020016000208054610acf906113c2565b80601f0160208091040260200160405190810160405280929190818152602001828054610afb906113c2565b8015610b485780601f10610b1d57610100808354040283529160200191610b48565b820191906000526020600020905b815481529060010190602001808311610b2b57829003601f168201915b50505050509050919050565b610c34600460003373ffffffffffffffffffffffffffffffffffffffff1673ffffffffffffffffffffffffffffffffffffffff1681526020019081526020016000208054610ba1906113c2565b80601f0160208091040260200160405190810160405280929190818152602001828054610bcd906113c2565b8015610c1a5780601f10610bef57610100808354040283529160200191610c1a565b820191906000526020600020905b815481529060010190602001808311610bfd57829003601f168201915b505050505060405180602001604052806000815250610730565b610c73576040517f08c379a0000000000000000000000000000000000000000000000000000000008152600401610c6a90611636565b60405180910390fd5b606460015434610c83919061168a565b610c8d91906116fb565b34610c98919061172c565b600560003373ffffffffffffffffffffffffffffffffffffffff1673ffffffffffffffffffffffffffffffffffffffff1681526020019081526020016000206000828254610ce69190611656565b92505081905550606460015434610cfd919061168a565b610d0791906116fb565b60026000828254610d189190611656565b925050819055506001600660003373ffffffffffffffffffffffffffffffffffffffff1673ffffffffffffffffffffffffffffffffffffffff16815260200190815260200160002060006101000a81548160ff021916908315150217905550565b600033600660008273ffffffffffffffffffffffffffffffffffffffff1673ffffffffffffffffffffffffffffffffffffffff16815260200190815260200160002060009054906101000a900460ff16610dd257600080fd5b600560003373ffffffffffffffffffffffffffffffffffffffff1673ffffffffffffffffffffffffffffffffffffffff1681526020019081526020016000205491505090565b60008183610e26919061168a565b905092915050565b60008183610e3c919061172c565b905092915050565b60008183610e5291906116fb565b905092915050565b6000604051905090565b600080fd5b600080fd5b600073ffffffffffffffffffffffffffffffffffffffff82169050919050565b6000610e9982610e6e565b9050919050565b610ea981610e8e565b8114610eb457600080fd5b50565b600081359050610ec681610ea0565b92915050565b600080fd5b600080fd5b6000601f19601f8301169050919050565b7f4e487b7100000000000000000000000000000000000000000000000000000000600052604160045260246000fd5b610f1f82610ed6565b810181811067ffffffffffffffff82111715610f3e57610f3d610ee7565b5b80604052505050565b6000610f51610e5a565b9050610f5d8282610f16565b919050565b600067ffffffffffffffff821115610f7d57610f7c610ee7565b5b610f8682610ed6565b9050602081019050919050565b82818337600083830152505050565b6000610fb5610fb084610f62565b610f47565b905082815260208101848484011115610fd157610fd0610ed1565b5b610fdc848285610f93565b509392505050565b600082601f830112610ff957610ff8610ecc565b5b8135611009848260208601610fa2565b91505092915050565b6000819050919050565b61102581611012565b811461103057600080fd5b50565b6000813590506110428161101c565b92915050565b600067ffffffffffffffff82111561106357611062610ee7565b5b602082029050602081019050919050565b600080fd5b600061108482610e6e565b9050919050565b61109481611079565b811461109f57600080fd5b50565b6000813590506110b18161108b565b92915050565b60006110ca6110c584611048565b610f47565b905080838252602082019050602084028301858111156110ed576110ec611074565b5b835b81811015611116578061110288826110a2565b8452602084019350506020810190506110ef565b5050509392505050565b600082601f83011261113557611134610ecc565b5b81356111458482602086016110b7565b91505092915050565b6000806000806080858703121561116857611167610e64565b5b600061117687828801610eb7565b945050602085013567ffffffffffffffff81111561119757611196610e69565b5b6111a387828801610fe4565b93505060406111b487828801611033565b925050606085013567ffffffffffffffff8111156111d5576111d4610e69565b5b6111e187828801611120565b91505092959194509250565b6000806040838503121561120457611203610e64565b5b600083013567ffffffffffffffff81111561122257611221610e69565b5b61122e85828601610fe4565b925050602083013567ffffffffffffffff81111561124f5761124e610e69565b5b61125b85828601610fe4565b9150509250929050565b60008115159050919050565b61127a81611265565b82525050565b60006020820190506112956000830184611271565b92915050565b6112a481611012565b82525050565b60006020820190506112bf600083018461129b565b92915050565b6000602082840312156112db576112da610e64565b5b60006112e9848285016110a2565b91505092915050565b600081519050919050565b600082825260208201905092915050565b60005b8381101561132c578082015181840152602081019050611311565b60008484015250505050565b6000611343826112f2565b61134d81856112fd565b935061135d81856020860161130e565b61136681610ed6565b840191505092915050565b6000602082019050818103600083015261138b8184611338565b905092915050565b7f4e487b7100000000000000000000000000000000000000000000000000000000600052602260045260246000fd5b600060028204905060018216806113da57607f821691505b6020821081036113ed576113ec611393565b5b50919050565b7f494d454920666f726e656369646f206e616f20636f72726573706f6e64650000600082015250565b6000611429601e836112fd565b9150611434826113f3565b602082019050919050565b600060208201905081810360008301526114588161141c565b9050919050565b7f4e616f2068612066756e646f7320737566696369656e7465732070617261206460008201527f6973747269627569720000000000000000000000000000000000000000000000602082015250565b60006114bb6029836112fd565b91506114c68261145f565b604082019050919050565b600060208201905081810360008301526114ea816114ae565b9050919050565b7f4e487b7100000000000000000000000000000000000000000000000000000000600052603260045260246000fd5b7f4e487b7100000000000000000000000000000000000000000000000000000000600052601160045260246000fd5b600061155a82611012565b91507fffffffffffffffffffffffffffffffffffffffffffffffffffffffffffffffff820361158c5761158b611520565b5b600182019050919050565b600081905092915050565b60006115ad826112f2565b6115b78185611597565b93506115c781856020860161130e565b80840191505092915050565b60006115df82846115a2565b915081905092915050565b7f446575207275696d000000000000000000000000000000000000000000000000600082015250565b60006116206008836112fd565b915061162b826115ea565b602082019050919050565b6000602082019050818103600083015261164f81611613565b9050919050565b600061166182611012565b915061166c83611012565b925082820190508082111561168457611683611520565b5b92915050565b600061169582611012565b91506116a083611012565b92508282026116ae81611012565b915082820484148315176116c5576116c4611520565b5b5092915050565b7f4e487b7100000000000000000000000000000000000000000000000000000000600052601260045260246000fd5b600061170682611012565b915061171183611012565b925082611721576117206116cc565b5b828204905092915050565b600061173782611012565b915061174283611012565b925082820390508181111561175a57611759611520565b5b9291505056fea2646970667358221220c229611359a66788ae8318621180c792a48673ec656980acae76decc31d7e2d164736f6c63430008130033a26469706673582212208c79b9780e4c81d44b4337e5d43bcac7f4826204686f96cdd49a7737847e742a64736f6c63430008130033",
  "immutableReferences": {},
  "source": "// SPDX-License-Identifier: GPL-3.0\r\n\r\npragma solidity ^0.8.7;\r\n\r\nimport \"./seguroSprint3.sol\";\r\n\r\ncontract SeguroFactory {\r\n    address owner;\r\n\r\n    address[] public seguros;\r\n\r\n    constructor() {\r\n        owner = msg.sender;\r\n    }\r\n\r\n    modifier isOwner() {\r\n        require(owner == msg.sender, \"Not owner\");\r\n        _;\r\n    }\r\n\r\n    function viewSeguros() public view returns (address[] memory) {\r\n        return seguros;\r\n    }\r\n\r\n    function createSeguro(\r\n        uint256 _adminTax,\r\n        address[] memory _members,\r\n        string[] memory _imeis,\r\n        uint _lmiTax\r\n    ) public isOwner {\r\n        SeguroMutuo seguro = new SeguroMutuo(\r\n            _adminTax,\r\n            _members,\r\n            _imeis,\r\n            _lmiTax,\r\n            owner\r\n        );\r\n        seguros.push(address(seguro));\r\n    }\r\n}\r\n",
  "sourcePath": "C:\\Users\\Inteli\\OneDrive\\Documentos\\GitHub\\Mdulo5\\Coover\\truffle\\contracts\\seguroFactory.sol",
  "compiler": {
    "name": "solc",
    "version": "0.8.19+commit.7dd6d404.Emscripten.clang"
  },
  "schemaVersion": "3.4.13",
  "updatedAt": "2023-04-04T22:59:16.523Z",
  "networkType": "ethereum",
  "devdoc": {
    "kind": "dev",
    "methods": {},
    "version": 1
  },
  "userdoc": {
    "kind": "user",
    "methods": {},
    "version": 1
  }
}