{
  "contractName": "Seguro1",
  "abi": [
    {
      "inputs": [
        {
          "internalType": "uint256",
          "name": "_adminTax",
          "type": "uint256"
        },
        {
          "internalType": "address[]",
          "name": "_members",
          "type": "address[]"
        },
        {
          "internalType": "string[]",
          "name": "_imeis",
          "type": "string[]"
        },
        {
          "internalType": "uint256",
          "name": "_lmiTax",
          "type": "uint256"
        }
      ],
      "stateMutability": "nonpayable",
      "type": "constructor"
    },
    {
      "inputs": [
        {
          "internalType": "address",
          "name": "_address",
          "type": "address"
        }
      ],
      "name": "realMember",
      "outputs": [
        {
          "internalType": "string",
          "name": "",
          "type": "string"
        }
      ],
      "stateMutability": "view",
      "type": "function"
    },
    {
      "inputs": [],
      "name": "firstPayment",
      "outputs": [],
      "stateMutability": "payable",
      "type": "function"
    },
    {
      "inputs": [
        {
          "internalType": "string",
          "name": "str1",
          "type": "string"
        },
        {
          "internalType": "string",
          "name": "str2",
          "type": "string"
        }
      ],
      "name": "inverseCompare",
      "outputs": [
        {
          "internalType": "bool",
          "name": "",
          "type": "bool"
        }
      ],
      "stateMutability": "pure",
      "type": "function"
    },
    {
      "inputs": [
        {
          "internalType": "string",
          "name": "str1",
          "type": "string"
        },
        {
          "internalType": "string",
          "name": "str2",
          "type": "string"
        }
      ],
      "name": "compare",
      "outputs": [
        {
          "internalType": "bool",
          "name": "",
          "type": "bool"
        }
      ],
      "stateMutability": "pure",
      "type": "function"
    },
    {
      "inputs": [
        {
          "internalType": "address payable",
          "name": "_userAddress",
          "type": "address"
        },
        {
          "internalType": "string",
          "name": "_imei",
          "type": "string"
        },
        {
          "internalType": "uint256",
          "name": "_indemnity",
          "type": "uint256"
        }
      ],
      "name": "indemnity",
      "outputs": [],
      "stateMutability": "nonpayable",
      "type": "function"
    },
    {
      "inputs": [],
      "name": "adminWithdrawal",
      "outputs": [],
      "stateMutability": "nonpayable",
      "type": "function"
    },
    {
      "inputs": [],
      "name": "viewBalance",
      "outputs": [
        {
          "internalType": "uint256",
          "name": "",
          "type": "uint256"
        }
      ],
      "stateMutability": "view",
      "type": "function"
    },
    {
      "inputs": [],
      "name": "replaceBackup",
      "outputs": [],
      "stateMutability": "payable",
      "type": "function"
    }
  ],
  "bytecode": "0x60806040523480156200001157600080fd5b5060405162001d3138038062001d31833981810160405281019062000037919062000618565b336000806101000a81548173ffffffffffffffffffffffffffffffffffffffff021916908373ffffffffffffffffffffffffffffffffffffffff1602179055508360018190555060005b83518110156200020157828181518110620000a157620000a0620006c8565b5b602002602001015160046000868481518110620000c357620000c2620006c8565b5b602002602001015173ffffffffffffffffffffffffffffffffffffffff1673ffffffffffffffffffffffffffffffffffffffff168152602001908152602001600020908162000113919062000938565b5060006005600086848151811062000130576200012f620006c8565b5b602002602001015173ffffffffffffffffffffffffffffffffffffffff1673ffffffffffffffffffffffffffffffffffffffff16815260200190815260200160002081905550600060066000868481518110620001925762000191620006c8565b5b602002602001015173ffffffffffffffffffffffffffffffffffffffff1673ffffffffffffffffffffffffffffffffffffffff16815260200190815260200160002060006101000a81548160ff0219169083151502179055508080620001f89062000a4e565b91505062000081565b50806003819055505050505062000a9b565b6000604051905090565b600080fd5b600080fd5b6000819050919050565b6200023c8162000227565b81146200024857600080fd5b50565b6000815190506200025c8162000231565b92915050565b600080fd5b6000601f19601f8301169050919050565b7f4e487b7100000000000000000000000000000000000000000000000000000000600052604160045260246000fd5b620002b28262000267565b810181811067ffffffffffffffff82111715620002d457620002d362000278565b5b80604052505050565b6000620002e962000213565b9050620002f78282620002a7565b919050565b600067ffffffffffffffff8211156200031a576200031962000278565b5b602082029050602081019050919050565b600080fd5b600073ffffffffffffffffffffffffffffffffffffffff82169050919050565b60006200035d8262000330565b9050919050565b6200036f8162000350565b81146200037b57600080fd5b50565b6000815190506200038f8162000364565b92915050565b6000620003ac620003a684620002fc565b620002dd565b90508083825260208201905060208402830185811115620003d257620003d16200032b565b5b835b81811015620003ff5780620003ea88826200037e565b845260208401935050602081019050620003d4565b5050509392505050565b600082601f83011262000421576200042062000262565b5b81516200043384826020860162000395565b91505092915050565b600067ffffffffffffffff8211156200045a576200045962000278565b5b602082029050602081019050919050565b600080fd5b600067ffffffffffffffff8211156200048e576200048d62000278565b5b620004998262000267565b9050602081019050919050565b60005b83811015620004c6578082015181840152602081019050620004a9565b60008484015250505050565b6000620004e9620004e38462000470565b620002dd565b9050828152602081018484840111156200050857620005076200046b565b5b62000515848285620004a6565b509392505050565b600082601f83011262000535576200053462000262565b5b815162000547848260208601620004d2565b91505092915050565b60006200056762000561846200043c565b620002dd565b905080838252602082019050602084028301858111156200058d576200058c6200032b565b5b835b81811015620005db57805167ffffffffffffffff811115620005b657620005b562000262565b5b808601620005c589826200051d565b855260208501945050506020810190506200058f565b5050509392505050565b600082601f830112620005fd57620005fc62000262565b5b81516200060f84826020860162000550565b91505092915050565b600080600080608085870312156200063557620006346200021d565b5b600062000645878288016200024b565b945050602085015167ffffffffffffffff81111562000669576200066862000222565b5b620006778782880162000409565b935050604085015167ffffffffffffffff8111156200069b576200069a62000222565b5b620006a987828801620005e5565b9250506060620006bc878288016200024b565b91505092959194509250565b7f4e487b7100000000000000000000000000000000000000000000000000000000600052603260045260246000fd5b600081519050919050565b7f4e487b7100000000000000000000000000000000000000000000000000000000600052602260045260246000fd5b600060028204905060018216806200074a57607f821691505b60208210810362000760576200075f62000702565b5b50919050565b60008190508160005260206000209050919050565b60006020601f8301049050919050565b600082821b905092915050565b600060088302620007ca7fffffffffffffffffffffffffffffffffffffffffffffffffffffffffffffffff826200078b565b620007d686836200078b565b95508019841693508086168417925050509392505050565b6000819050919050565b600062000819620008136200080d8462000227565b620007ee565b62000227565b9050919050565b6000819050919050565b6200083583620007f8565b6200084d620008448262000820565b84845462000798565b825550505050565b600090565b6200086462000855565b620008718184846200082a565b505050565b5b8181101562000899576200088d6000826200085a565b60018101905062000877565b5050565b601f821115620008e857620008b28162000766565b620008bd846200077b565b81016020851015620008cd578190505b620008e5620008dc856200077b565b83018262000876565b50505b505050565b600082821c905092915050565b60006200090d60001984600802620008ed565b1980831691505092915050565b6000620009288383620008fa565b9150826002028217905092915050565b6200094382620006f7565b67ffffffffffffffff8111156200095f576200095e62000278565b5b6200096b825462000731565b620009788282856200089d565b600060209050601f831160018114620009b057600084156200099b578287015190505b620009a785826200091a565b86555062000a17565b601f198416620009c08662000766565b60005b82811015620009ea57848901518255600182019150602085019450602081019050620009c3565b8683101562000a0a578489015162000a06601f891682620008fa565b8355505b6001600288020188555050505b505050505050565b7f4e487b7100000000000000000000000000000000000000000000000000000000600052601160045260246000fd5b600062000a5b8262000227565b91507fffffffffffffffffffffffffffffffffffffffffffffffffffffffffffffffff820362000a905762000a8f62000a1f565b5b600182019050919050565b6112868062000aab6000396000f3fe60806040526004361061007b5760003560e01c806363ffe7e31161004e57806363ffe7e31461014e5780636fcab40914610165578063a4015a4b1461016f578063c704665d146101ac5761007b565b8063145f919c146100805780633a96fdd7146100bd5780633ff1e05b146100fa57806345cf844914610125575b600080fd5b34801561008c57600080fd5b506100a760048036038101906100a29190610ca5565b6101b6565b6040516100b49190610d38565b60405180910390f35b3480156100c957600080fd5b506100e460048036038101906100df9190610ca5565b610210565b6040516100f19190610d38565b60405180910390f35b34801561010657600080fd5b5061010f610269565b60405161011c9190610d6c565b60405180910390f35b34801561013157600080fd5b5061014c60048036038101906101479190610e11565b610308565b005b34801561015a57600080fd5b506101636105c3565b005b61016d610686565b005b34801561017b57600080fd5b5061019660048036038101906101919190610ebe565b610855565b6040516101a39190610f6a565b60405180910390f35b6101b4610926565b005b6000816040516020016101c99190610fc8565b60405160208183030381529060405280519060200120836040516020016101f09190610fc8565b604051602081830303815290604052805190602001201415905092915050565b6000816040516020016102239190610fc8565b604051602081830303815290604052805190602001208360405160200161024a9190610fc8565b6040516020818303038152906040528051906020012014905092915050565b600033600660008273ffffffffffffffffffffffffffffffffffffffff1673ffffffffffffffffffffffffffffffffffffffff16815260200190815260200160002060009054906101000a900460ff166102c257600080fd5b600560003373ffffffffffffffffffffffffffffffffffffffff1673ffffffffffffffffffffffffffffffffffffffff1681526020019081526020016000205491505090565b60008054906101000a900473ffffffffffffffffffffffffffffffffffffffff1673ffffffffffffffffffffffffffffffffffffffff163373ffffffffffffffffffffffffffffffffffffffff161461036057600080fd5b82600660008273ffffffffffffffffffffffffffffffffffffffff1673ffffffffffffffffffffffffffffffffffffffff16815260200190815260200160002060009054906101000a900460ff166103b757600080fd5b610488600460008673ffffffffffffffffffffffffffffffffffffffff1673ffffffffffffffffffffffffffffffffffffffff16815260200190815260200160002080546104049061100e565b80601f01602080910402602001604051908101604052809291908181526020018280546104309061100e565b801561047d5780601f106104525761010080835404028352916020019161047d565b820191906000526020600020905b81548152906001019060200180831161046057829003601f168201915b505050505084610210565b6104c7576040517f08c379a00000000000000000000000000000000000000000000000000000000081526004016104be9061108b565b60405180910390fd5b81600354600560008773ffffffffffffffffffffffffffffffffffffffff1673ffffffffffffffffffffffffffffffffffffffff1681526020019081526020016000205461051591906110da565b101561052057600080fd5b8373ffffffffffffffffffffffffffffffffffffffff166108fc839081150290604051600060405180830381858888f19350505050158015610566573d6000803e3d6000fd5b5081600560008673ffffffffffffffffffffffffffffffffffffffff1673ffffffffffffffffffffffffffffffffffffffff16815260200190815260200160002060008282546105b6919061111c565b9250508190555050505050565b60008054906101000a900473ffffffffffffffffffffffffffffffffffffffff1673ffffffffffffffffffffffffffffffffffffffff163373ffffffffffffffffffffffffffffffffffffffff161461061b57600080fd5b60008054906101000a900473ffffffffffffffffffffffffffffffffffffffff1673ffffffffffffffffffffffffffffffffffffffff166108fc6002549081150290604051600060405180830381858888f19350505050158015610683573d6000803e3d6000fd5b50565b33600660008273ffffffffffffffffffffffffffffffffffffffff1673ffffffffffffffffffffffffffffffffffffffff16815260200190815260200160002060009054906101000a900460ff166106dd57600080fd5b6107bd600460003373ffffffffffffffffffffffffffffffffffffffff1673ffffffffffffffffffffffffffffffffffffffff168152602001908152602001600020805461072a9061100e565b80601f01602080910402602001604051908101604052809291908181526020018280546107569061100e565b80156107a35780601f10610778576101008083540402835291602001916107a3565b820191906000526020600020905b81548152906001019060200180831161078657829003601f168201915b5050505050604051806020016040528060008152506101b6565b6107fc576040517f08c379a00000000000000000000000000000000000000000000000000000000081526004016107f39061119c565b60405180910390fd5b34600560003373ffffffffffffffffffffffffffffffffffffffff1673ffffffffffffffffffffffffffffffffffffffff168152602001908152602001600020600082825461084b91906111bc565b9250508190555050565b6060600460008373ffffffffffffffffffffffffffffffffffffffff1673ffffffffffffffffffffffffffffffffffffffff16815260200190815260200160002080546108a19061100e565b80601f01602080910402602001604051908101604052809291908181526020018280546108cd9061100e565b801561091a5780601f106108ef5761010080835404028352916020019161091a565b820191906000526020600020905b8154815290600101906020018083116108fd57829003601f168201915b50505050509050919050565b610a06600460003373ffffffffffffffffffffffffffffffffffffffff1673ffffffffffffffffffffffffffffffffffffffff16815260200190815260200160002080546109739061100e565b80601f016020809104026020016040519081016040528092919081815260200182805461099f9061100e565b80156109ec5780601f106109c1576101008083540402835291602001916109ec565b820191906000526020600020905b8154815290600101906020018083116109cf57829003601f168201915b5050505050604051806020016040528060008152506101b6565b610a45576040517f08c379a0000000000000000000000000000000000000000000000000000000008152600401610a3c9061119c565b60405180910390fd5b606460015434610a5591906110da565b610a5f919061121f565b34610a6a919061111c565b600560003373ffffffffffffffffffffffffffffffffffffffff1673ffffffffffffffffffffffffffffffffffffffff1681526020019081526020016000206000828254610ab891906111bc565b92505081905550606460015434610acf91906110da565b610ad9919061121f565b60026000828254610aea91906111bc565b925050819055506001600660003373ffffffffffffffffffffffffffffffffffffffff1673ffffffffffffffffffffffffffffffffffffffff16815260200190815260200160002060006101000a81548160ff021916908315150217905550565b6000604051905090565b600080fd5b600080fd5b600080fd5b600080fd5b6000601f19601f8301169050919050565b7f4e487b7100000000000000000000000000000000000000000000000000000000600052604160045260246000fd5b610bb282610b69565b810181811067ffffffffffffffff82111715610bd157610bd0610b7a565b5b80604052505050565b6000610be4610b4b565b9050610bf08282610ba9565b919050565b600067ffffffffffffffff821115610c1057610c0f610b7a565b5b610c1982610b69565b9050602081019050919050565b82818337600083830152505050565b6000610c48610c4384610bf5565b610bda565b905082815260208101848484011115610c6457610c63610b64565b5b610c6f848285610c26565b509392505050565b600082601f830112610c8c57610c8b610b5f565b5b8135610c9c848260208601610c35565b91505092915050565b60008060408385031215610cbc57610cbb610b55565b5b600083013567ffffffffffffffff811115610cda57610cd9610b5a565b5b610ce685828601610c77565b925050602083013567ffffffffffffffff811115610d0757610d06610b5a565b5b610d1385828601610c77565b9150509250929050565b60008115159050919050565b610d3281610d1d565b82525050565b6000602082019050610d4d6000830184610d29565b92915050565b6000819050919050565b610d6681610d53565b82525050565b6000602082019050610d816000830184610d5d565b92915050565b600073ffffffffffffffffffffffffffffffffffffffff82169050919050565b6000610db282610d87565b9050919050565b610dc281610da7565b8114610dcd57600080fd5b50565b600081359050610ddf81610db9565b92915050565b610dee81610d53565b8114610df957600080fd5b50565b600081359050610e0b81610de5565b92915050565b600080600060608486031215610e2a57610e29610b55565b5b6000610e3886828701610dd0565b935050602084013567ffffffffffffffff811115610e5957610e58610b5a565b5b610e6586828701610c77565b9250506040610e7686828701610dfc565b9150509250925092565b6000610e8b82610d87565b9050919050565b610e9b81610e80565b8114610ea657600080fd5b50565b600081359050610eb881610e92565b92915050565b600060208284031215610ed457610ed3610b55565b5b6000610ee284828501610ea9565b91505092915050565b600081519050919050565b600082825260208201905092915050565b60005b83811015610f25578082015181840152602081019050610f0a565b60008484015250505050565b6000610f3c82610eeb565b610f468185610ef6565b9350610f56818560208601610f07565b610f5f81610b69565b840191505092915050565b60006020820190508181036000830152610f848184610f31565b905092915050565b600081905092915050565b6000610fa282610eeb565b610fac8185610f8c565b9350610fbc818560208601610f07565b80840191505092915050565b6000610fd48284610f97565b915081905092915050565b7f4e487b7100000000000000000000000000000000000000000000000000000000600052602260045260246000fd5b6000600282049050600182168061102657607f821691505b60208210810361103957611038610fdf565b5b50919050565b7f494d454920666f726e656369646f206e616f20636f72726573706f6e64650000600082015250565b6000611075601e83610ef6565b91506110808261103f565b602082019050919050565b600060208201905081810360008301526110a481611068565b9050919050565b7f4e487b7100000000000000000000000000000000000000000000000000000000600052601160045260246000fd5b60006110e582610d53565b91506110f083610d53565b92508282026110fe81610d53565b91508282048414831517611115576111146110ab565b5b5092915050565b600061112782610d53565b915061113283610d53565b925082820390508181111561114a576111496110ab565b5b92915050565b7f446575207275696d000000000000000000000000000000000000000000000000600082015250565b6000611186600883610ef6565b915061119182611150565b602082019050919050565b600060208201905081810360008301526111b581611179565b9050919050565b60006111c782610d53565b91506111d283610d53565b92508282019050808211156111ea576111e96110ab565b5b92915050565b7f4e487b7100000000000000000000000000000000000000000000000000000000600052601260045260246000fd5b600061122a82610d53565b915061123583610d53565b925082611245576112446111f0565b5b82820490509291505056fea2646970667358221220a1e515842c980552970dbb2e18c046be5a5bec808ba212860196808639c5667d64736f6c63430008120033",
  "immutableReferences": {},
  "source": "// SPDX-License-Identifier: GPL-3.0\r\n\r\npragma solidity ^0.8.7;\r\n\r\n// Primeiramente so definidas as variveis e seus tipos sendo elas:\r\n// endereo -> Coover (dona e administradora do contrato)\r\n// inteiro -> taxa administrativa\r\n// mapping (DHT) -> endereo de carteiras dos membros so chaves que levam ao IMEI dos celulares\r\n// mapping (DHT) -> endereo de carteiras dos membros so chaves ao valor que possuem de reseva pessoal\r\ncontract Seguro1 {\r\n    address payable owner;\r\n    uint256 adminTax;\r\n    uint256 adminTaxAmount;\r\n    uint256 lmiTax;\r\n    mapping(address => string) memberImei;\r\n    mapping(address => uint256) memberFunds;\r\n    mapping(address => bool) memberIsActive;\r\n    //modifier para ser usado quando s o owner do contrato (Coover) pode realizar a funo\r\n    modifier onlyOwner() {\r\n        require(msg.sender == owner);\r\n        _;\r\n    }\r\n    //modifier para ser usado para conferir se o usurio est ativo no contrato\r\n    modifier isActive(address _userAddress) {\r\n        require(memberIsActive[_userAddress]);\r\n        _;\r\n    }\r\n\r\n    /*Regra de negcio: A Coover  definida como dona e administradora do contrato, \r\ndevendo estabelecer os membros deste e seus IMEIs dos aparelhos protegidos, \r\nassim como a taxa administrativa*/\r\n    constructor(\r\n        uint256 _adminTax,\r\n        address[] memory _members,\r\n        string[] memory _imeis,\r\n        uint _lmiTax\r\n    ) {\r\n        owner = payable(msg.sender);\r\n        adminTax = _adminTax;\r\n        /*o loop abaixo utiliza o mapping member para conferir se a chave (address) aponta\r\n         para o imei e fundos corretos e se os dois esto no mesmo ndice de seus respectivos arrays*/\r\n        for (uint256 i = 0; i < _members.length; i++) {\r\n            memberImei[_members[i]] = _imeis[i];\r\n            memberFunds[_members[i]] = 0;\r\n            memberIsActive[_members[i]] = false;\r\n        }\r\n        lmiTax = _lmiTax;\r\n    }\r\n\r\n    //essa funo retorna o imei do membro como string\r\n    function realMember(address _address) public view returns (string memory) {\r\n        return memberImei[_address];\r\n    }\r\n\r\n    /*Regra de negcio: os membros, no deploy do contrato, devem realizar um pagamento inicial*/\r\n    /*a funo compara o hash do usurio que realizou a transao (msg.sender) no  distinto\r\n    com os que esto no contrato do mapping member, para que ela se concretize*/\r\n    function firstPayment() public payable {\r\n        require(inverseCompare(memberImei[msg.sender], \"\"), \"Deu ruim\");\r\n        memberFunds[msg.sender] += msg.value - ((msg.value * adminTax) / 100); //aqui  recalculado os fundos do segurado, de zero ao valor pago por ele, levando em considerao a taxa percentual administrativa subtrada do valor total pago\r\n        adminTaxAmount += (msg.value * adminTax) / 100;\r\n        memberIsActive[msg.sender] = true; //aps o pagamento o cliente est ativo para realizar demais funes no contrato\r\n    }\r\n\r\n    function inverseCompare(string memory str1, string memory str2)\r\n        public\r\n        pure\r\n        returns (bool)\r\n    {\r\n        return\r\n            keccak256(abi.encodePacked(str1)) !=\r\n            keccak256(abi.encodePacked(str2));\r\n    }\r\n\r\n    function compare(string memory str1, string memory str2)\r\n        public\r\n        pure\r\n        returns (bool)\r\n    {\r\n        return\r\n            keccak256(abi.encodePacked(str1)) ==\r\n            keccak256(abi.encodePacked(str2));\r\n    }\r\n\r\n    /* Regra de negcio: a Coover deve aprovar a indenizao de um segurado e, a partir disso,\r\n     informar a carteira dele. O hash do segurado em que o sinistro ocorreu deve ser igual ao \r\n     que est armazenado no contrato de sua carteira para que seja concretizado*/\r\n    function indemnity(\r\n        address payable _userAddress,\r\n        string memory _imei,\r\n        uint256 _indemnity\r\n    ) public onlyOwner isActive(_userAddress) {\r\n        require(\r\n            compare(memberImei[_userAddress], _imei),\r\n            \"IMEI fornecido nao corresponde\"\r\n        );\r\n        require(memberFunds[_userAddress] * lmiTax >= _indemnity); // confere se o valor do fundo multiplicado pela taxa de limite mximo indenizvel  superior ou igual ao da indenizao requirida, ou seja, o valor total do celular\r\n        _userAddress.transfer(_indemnity); //o mtodo utilizado aqui (transfer), s funciona com <2300, ou seja, no recomendado fazer em horrios de pico\r\n        memberFunds[_userAddress] -= _indemnity; // recalcula o fundo do segurado\r\n    }\r\n\r\n    // Regra de negcio: A Coover pode retirar a taxa administrativa a qualquer momento\r\n    function adminWithdrawal() public onlyOwner {\r\n        owner.transfer(adminTaxAmount);\r\n    }\r\n\r\n    //Regra de negcio: O cliente deve conseguir ver seu valor de resera para conferir o valor protegido do seguro.\r\n    function viewBalance() public view isActive(msg.sender) returns (uint256) {\r\n        return memberFunds[msg.sender];\r\n    }\r\n\r\n    //Regra de negcio: O cliente deve conseguir repor sua reserva.\r\n    function replaceBackup() public payable isActive(msg.sender) {\r\n        require(inverseCompare(memberImei[msg.sender], \"\"), \"Deu ruim\");\r\n        memberFunds[msg.sender] += msg.value;\r\n    }\r\n}\r\n",
  "sourcePath": "C:\\Users\\Inteli\\OneDrive\\Documentos\\GitHub\\Mdulo5\\Projeto4\\deploy contrato\\contracts\\seguroSprint2.sol",
  "compiler": {
    "name": "solc",
    "version": "0.8.18+commit.87f61d96.Emscripten.clang"
  },
  "schemaVersion": "3.4.12",
  "updatedAt": "2023-03-06T19:49:26.270Z",
  "devdoc": {
    "kind": "dev",
    "methods": {},
    "version": 1
  },
  "userdoc": {
    "kind": "user",
    "methods": {},
    "version": 1
  }
}